:020000040800F2
:10000000FC07002089010008E5010008E50100085F
:10001000E5010008E5010008E50100080000000016
:10002000000000000000000000000000E5010008E2
:10003000E501000800000000E5010008E5010008F6
:10004000E5010008E5010008E5010008E5010008F8
:10005000E5010008E5010008E5010008E5010008E8
:10006000E5010008E5010008E5010008E5010008D8
:10007000E5010008E5010008E5010008E5010008C8
:10008000E5010008E5010008E5010008E5010008B8
:10009000E5010008E5010008E5010008E5010008A8
:1000A000E5010008E5010008E5010008E501000898
:1000B000E5010008E5010008E5010008E501000888
:1000C000E5010008E5010008E5010008E501000878
:1000D000E5010008E5010008E5010008E501000868
:1000E000E5010008E5010008E5010008E501000858
:1000F000E5010008E5010008E5010008E501000848
:10010000E5010008E5010008E5010008E501000837
:10011000E5010008E5010008E5010008E501000827
:10012000E5010008E5010008E5010008E501000817
:10013000E5010008E5010008E5010008E501000807
:10014000E5010008E5010008E5010008E5010008F7
:10015000E5010008E5010008E5010008E5010008E7
:10016000E5010008E5010008E5010008E5010008D7
:10017000E5010008E5010008E5010008E5010008C7
:10018000E5010008E501000880B582B000AF104B22
:100190007B60104B3B6007E03B681A1D3A607A6851
:1001A000111D796012681A603B680B4A9342F3D3C1
:1001B0000A480B494FF000028842B8BF40F8042BB0
:1001C000FADB00F017F800F011F80837BD4680BDE3
:1001D0007C03000800000020000000200000002038
:1001E0000000002080B400AFFEE700BF80B400AF85
:1001F000FEE700BF80B500AF114A114B1B6843F00A
:10020000010313600E4B00229A600D4A0C4B1B68D1
:1002100023F0847323F480331360094B094A5A6036
:10022000074A074B1B6823F480231360044B00220A
:10023000DA6000F00BF8044B4FF000629A6080BD6A
:10024000003802401030002400ED00E080B483B09C
:1002500000AF00237B6000233B60414A404B1B689A
:1002600043F4803313603E4B1B6803F400333B6060
:100270007B6801337B603B68002B03D17B68B3F55F
:10028000A06FF0D1364B1B6803F40033002B02D073
:1002900001233B6001E000233B603B68012B42D11E
:1002A0002F4A2F4B1B6C43F0805313642D4A2D4B68
:1002B0001B6843F480431360294A294B9B68936071
:1002C000274A274B9B6843F400439360244A244BFE
:1002D0009B6843F4A0539360214B234A5A60204A01
:1002E0001F4B1B6843F08073136000BF1C4B1B68DF
:1002F00003F00073002BF9D01C4B40F205621A602A
:10030000174A174B9B6823F003039360144A144B5E
:100310009B6843F00203936000BF114B9B6803F09E
:100320000C03082BF9D10E4A0D4B9B6823F40003F4
:1003300093600B4B0E4AC3F88420094A084B1B6894
:1003400043F08063136000BF054B1B6803F000633C
:10035000002BF9D00C37BD465DF8047B704700BF19
:10036000003802400070004008544007003C024042
:040370008040003099
:0803740078FEFF7F010000008C
:0400000508000000EF
:00000001FF
