:020000040800F2
:10000000B0AE002041070008B1070008B1070008A2
:10001000B1070008B1070008B107000800000000A0
:10002000000000000000000000000000B107000810
:10003000B107000800000000B107000879030008BC
:10004000B1070008B1070008B1070008B1070008B0
:10005000B1070008B1070008B1070008793C0008A3
:10006000B1070008B1070008FD3B0008B107000810
:10007000B1070008B1070008B1070008B107000880
:10008000B1070008B1070008B1070008B107000870
:10009000B1070008B1070008B1070008F53C0008E7
:1000A000B1070008B1070008B1070008B107000850
:1000B000B1070008B1070008B93A0008B107000805
:1000C000B1070008B1070008B1070008B107000830
:1000D000B10700084581000881810008BD81000842
:1000E000B1070008B1070008B1070008B107000810
:1000F000B1070008B1070008B1070008B107000800
:10010000B1070008B1070008B1070008B1070008EF
:10011000F981000835820008B1070008B10700081E
:10012000B1070008B1070008B1070008B1070008CF
:10013000B1070008B1070008B1070008B1070008BF
:10014000B1070008B1070008B1070008B1070008AF
:10015000B1070008B1070008B10700087182000864
:10016000B1070008B1070008B1070008B10700088F
:10017000B1070008B1070008B1070008B10700087F
:10018000B1070008B107000810B5054C237833B952
:10019000044B13B10448AFF300800123237010BD5A
:1001A000E808002000000000BCBE010808B5064BAE
:1001B0001BB106480649AFF300800648036813B137
:1001C000054B03B1984708BD00000000BCBE010804
:1001D000EC080020E00800200000000090B484B08B
:1001E00000AF02460B46FA71BB710023FB60BB797E
:1001F00003F003039B000F2202FA03F3FB60154B8D
:10020000BA799208D2B21349B8798008C0B20230E4
:1002100051F82000F968C9430140023243F8221026
:100220000C4BBA799208D2B20A49B8798008C0B2A8
:10023000023051F82000FC79B97901F003018900FE
:1002400004FA01F10143023243F822101037BD468F
:1002500090BC70470038014080B483B000AF0346C3
:100260003960FB7197F90730002B0BDA0D49FB79E8
:1002700003F00F03043B3A68D2B21201D2B20B442E
:100280001A7609E0084997F907303A68D2B21201A4
:10029000D2B20B4483F800230C37BD465DF8047BD3
:1002A000704700BF00ED00E000E100E080B582B0E3
:1002B00000AF78607B68B3F1807F01D3012311E048
:1002C0000A4B7A6822F07F42013A5A604FF0FF30C1
:1002D0000F21FFF7C1FF054B00229A60034B072255
:1002E0001A60002318460837BD4680BD10E000E0C4
:1002F00080B485B000AF78607B684FF47A7202FBFF
:1003000003F2074B1B681344FB6000BF044B1A68E1
:10031000FB689A42FAD31437BD465DF8047B7047F8
:100320000409002080B485B000AF7860074B1A68DC
:100330007B681344FB6000BF044B1A68FB689A4259
:10034000FAD31437BD465DF8047B704704090020DA
:1003500080B500AF064B1A68064BA3FB02139B0C3B
:100360001846FFF7A3FF0346002B00D0FEE780BD31
:100370001800002083DE1B4380B400AF044B1B68D1
:100380005A1C034B1A60BD465DF8047B704700BFE2
:100390000409002080B400AF054B1A68054BA3FB8D
:1003A00002139B091846BD465DF8047B704700BFE9
:1003B00004090020D34D621080B400AF034B1B68CA
:1003C0001846BD465DF8047B704700BF0409002055
:1003D00080B58AB000AF7860396000237B6200236B
:1003E0003B620023FB610023BB617B681B8A9BB2DD
:1003F0007B627B6A23F440537B623B68DB887A6ACA
:1004000013437B627B6A9AB27B681A827B689B8902
:100410009BB27B627B6A23F4B05323F00C037B62B4
:100420003B689A883B681B8913439AB23B685B8997
:1004300013439BB27A6A13437B627B6A9AB27B68EE
:100440009A817B689B8A9BB27B627B6A23F44073B0
:100450007B623B689B897A6A13437B627B6A9AB2B0
:100460007B689A8207F10803184604F065FB7A68F6
:10047000314B9A4203D07A68304B9A4202D17B6961
:100480003B6201E03B693B627B689B899BB29BB20C
:100490001BB2002B0CDA3A6A13469B0013449A00F5
:1004A0001A443B681B685B00B2FBF3F3FB610BE093
:1004B0003A6A13469B0013449A001A443B681B682F
:1004C0009B00B2FBF3F3FB61FA691D4BA3FB021324
:1004D0005B091B017B627B6A1B09642202FB03F33D
:1004E000FA69D31ABB617B689B899BB29BB21BB232
:1004F000002B0DDABB69DB0003F13202104BA3FBCA
:1005000002135B0903F007037A6A13437B620CE072
:10051000BB691B0103F13202094BA3FB02135B0908
:1005200003F00F037A6A13437B627B6A9AB27B689B
:100530001A812837BD4680BD0010014000140140DB
:100540001F85EB5180B483B000AF78600B46FB7021
:10055000FB78002B08D07B689B899BB243F4005347
:100560009AB27B689A8107E07B689B899BB223F4EF
:1005700000539AB27B689A810C37BD465DF8047BC4
:10058000704700BF80B483B000AF78600B467B80BB
:100590007B88C3F308039AB27B689A800C37BD4608
:1005A0005DF8047B704700BF80B483B000AF786013
:1005B0007B689B889BB2C3F308039BB218460C3739
:1005C000BD465DF8047B704780B487B000AF7860AB
:1005D00013460A467A807B7000233B610023FB6050
:1005E0000023BB6000237B617B687B617B88DBB27F
:1005F0005B09DBB23B617B8803F01F03FB60FB6898
:10060000012202FA03F3BB603B69012B03D17B6932
:100610000C337B6109E03B69022B03D17B6910330A
:100620007B6102E07B6914337B617B78002B06D011
:100630007B697A691168BA680A431A6006E07B69C7
:100640007A691168BA68D2430A401A601C37BD46FD
:100650005DF8047B704700BF80B485B000AF786060
:100660000B467B800023FB737B681B889AB27B88D8
:1006700013409BB2002B02D00123FB7301E0002347
:10068000FB73FB7B18461437BD465DF8047B70474F
:1006900080B487B000AF78600B467B800023FB609E
:1006A00000237B610023BB600023FB747B88DBB2EB
:1006B0005B09DBB2BB607B8803F01F037B617B6956
:1006C000012202FA03F37B61BB68012B06D17B6830
:1006D0009B899BB27A6913407B610FE0BB68022B58
:1006E00006D17B681B8A9BB27A6913407B6105E067
:1006F0007B689B8A9BB27A6913407B617B881B0A6B
:100700009BB2FB60FB68012202FA03F3FB607B688B
:100710001B889BB2FA681340FB607B69002B05D0F5
:10072000FB68002B02D00123FB7401E00023FB7463
:10073000FB7C18461C37BD465DF8047B704700BF44
:1007400080B582B000AF144B7B60144B3B6007E078
:100750003B681A1D3A607A68111D796012681A6048
:100760003A680F4B9A42F3D30E480F494FF00002FC
:100770008842B8BF40F8042BFFF6FAAFDFF82C0030
:10078000016841F47001016007F0A0FA01F040F93E
:100790000837BD4680BD00BF64C5010800000020C9
:1007A000E4080020E8080020ACA6002088ED00E066
:1007B00080B400AFFEE700BF90B585B000AF7860B1
:1007C000786803F0E7FA062011F084F90446204621
:1007D0000021012240F2FF3303F0E8FA7B681C603D
:1007E000062011F077F9044620460121012240F24B
:1007F000FF3303F0DBFA7B685C60062011F06AF9D6
:10080000044620460221012240F2FF3303F0CEFAD3
:100810007B689C60062011F05DF9044620460321A8
:10082000012240F2FF3303F0C1FA7B68DC6006204E
:1008300011F050F9044620460421012240F2FF3312
:1008400003F0B4FA7B681C61062011F043F90446FA
:1008500020460521012240F2FF3303F0A7FA7B680E
:100860005C61062011F036F904462046062101227B
:1008700040F2FF3303F09AFA7B689C61062011F086
:1008800029F9044620460721012240F2FF3303F0F4
:100890008DFA7B68DC61062011F01CF904462046C5
:1008A0000821012240F2FF3303F080FA7B681C62CA
:1008B000062011F00FF9044620460921012240F2DA
:1008C000FF3303F073FA7B685C627B681B68184631
:1008D00003F084FA7B68012283F828207B680122D8
:1008E00083F829207B6819225A857B6814229A850F
:1008F0007B68012283F82E2007F10803184606F0D2
:10090000A5FC0420012104F0C1F901233B734FF43D
:100910008073BB6003237B7307F108033A481946D1
:1009200006F006FC0820012104F0B0F901233B7316
:100930004FF48043BB6003237B7307F10803334804
:10094000194606F0F5FB0420012104F09FF900236D
:100950003B730023BB734FF40053BB600023FB7356
:1009600003237B7307F108032748194606F0E0FBD1
:100970001020012104F08AF900233B730023BB738C
:100980002023BB600023FB7303237B7307F1080361
:100990001F48194606F0CCFB7B6831E0204611F079
:1009A000C5F810F01DFF204611F0C0F810F018FF38
:1009B000204611F0BBF810F013FF204611F0B6F8F6
:1009C00010F00EFF204611F0B1F810F009FF20469C
:1009D00011F0ACF810F004FF204611F0A7F810F069
:1009E000FFFE204611F0A2F810F0FAFE204611F0AA
:1009F0009DF810F0F5FE204611F098F810F0F0FE8A
:100A000018461437BD4690BD00080240000C024055
:100A10000010024080B582B000AF78607B681B6830
:100A2000184611F083F87B685B68184611F07EF871
:100A30007B689B68184611F079F87B68DB6818467C
:100A400011F074F87B681B6A184611F06FF87B6828
:100A50005B6A184611F06AF87B681B69184611F04A
:100A600065F87B685B69184611F060F87B689B69E4
:100A7000184611F05BF87B68DB69184611F056F8F0
:100A80007B681B6A184611F051F87B685B6A184650
:100A900011F04CF87B6818460837BD4680BD00BF92
:100AA00080B584B000AF78609D484FF4005106F0E7
:100AB000E7FB0346002B14BF00230123DBB2FB73CB
:100AC0009848202106F0DCFB0346BB7394484FF4A2
:100AD000807106F0EFFB03467B7393484FF480412F
:100AE00006F0E8FB03463B73FB7B002B04D07B68DE
:100AF000062283F82820A7E0FB7B002B07D17B6828
:100B000093F82830DBB2062B01D1012300E000234B
:100B1000002B04D07B68052283F8282094E0BB7B5F
:100B2000002B0DD07B6893F82830DBB2052B05D065
:100B30007B6893F82830DBB2042B01D1012300E05D
:100B40000023002B04D07B68032283F828207BE05D
:100B5000BB7B002B13D17B6893F82830DBB2022BD0
:100B600005D07B6893F82830DBB2032B07D13B7BA1
:100B7000002B02D07B7B002B01D1012300E000235E
:100B8000002B04D07B68012283F828205CE0BB7B2B
:100B9000002B0AD07B6893F82830DBB2012B04D1FC
:100BA0003B7B002B01D0012300E00023002B04D06D
:100BB0007B68022283F8282046E0BB7B002B0DD007
:100BC0007B6893F82830DBB2012B07D13B7B002BED
:100BD00002D07B7B002B01D1012300E00023002BFE
:100BE00004D07B68002283F828202DE0BB7B002BFB
:100BF00010D17B6893F82830DBB2032B05D07B68DB
:100C000093F82830DBB2022B04D13B7B002B01D0C0
:100C1000012300E00023002B04D07B68042283F82A
:100C2000282011E0BB7B002B07D17B6893F828308C
:100C3000DBB2002B01D1012300E00023002B03D005
:100C40007B68012283F828207B6893F82E3083F09C
:100C50000103DBB2002B09D1FFF79CFB0246334BAB
:100C60001B68D21A40F6B8339A4201D9012300E03A
:100C70000023002B06D07B6893F82830DAB27B681B
:100C800083F829207B6893F82930DAB27B6893F8DF
:100C90002830DBB29A420BD07B6893F82930DBB264
:100CA000012B07D17B6893F82830DBB2002B01D1F0
:100CB000012300E00023002B0BD019484FF4807172
:100CC00006F020FBFFF766FB03461A46174B1A6037
:100CD00023E07B6893F82930DAB27B6893F82830F8
:100CE000DBB29A4294BF00230123DBB2002B0AD06F
:100CF0000D484FF4804106F0F7FA09484FF480712F
:100D000006F0F2FA09E008484FF4804106F0FAFADA
:100D100003484FF4807106F0E7FA1037BD4680BDF6
:100D20000008024000100240000C0240B49C002069
:100D300080B582B000AF78600B467B807B681A6913
:100D40007B881046194603F077F80837BD4680BD0A
:100D500080B584B000AF7860524803F087F85248FD
:100D600003F084F8514803F09BF8514803F07EF8F3
:100D700007F10C031846002103F0AAF8002003F045
:100D8000C1F84C4803F072F84B4803F06FF807F1D4
:100D90000C031846002103F09BF8012003F0B2F881
:100DA000444803F063F8454803F060F807F10C038A
:100DB0001846002103F08CF8022003F0A3F83D4808
:100DC00003F054F83E4803F051F807F10C031846BD
:100DD000002103F07DF8032003F094F8354803F078
:100DE00045F8384803F042F807F10C031846002193
:100DF00003F06EF8042003F085F82E4803F036F86F
:100E0000314803F033F807F10C031846002103F0D2
:100E10005FF8052003F076F8264803F027F82B4802
:100E200003F024F807F10C031846002103F050F8F2
:100E3000062003F067F81F4803F018F8244803F071
:100E400015F807F10C031846002103F041F80720BC
:100E500003F058F8174803F009F81E4803F006F8A5
:100E600007F10C031846002103F032F8082003F0C4
:100E700049F8104802F0FAFF174802F0F7FF07F1AF
:100E80000C031846002103F023F8092003F03AF878
:100E9000084802F0EBFF114802F0E8FF1037BD46AA
:100EA00080BD00BF749201088C920108B0920108C5
:100EB000B4920108C4920108CC920108DC920108A6
:100EC000E8920108F49201080093010810930108C8
:100ED0001C9301082C9301083893010844930108DE
:100EE00080B582B000AF78600B46FB707B68FA7803
:100EF00083F82E2003484FF4804106F003FA0837A8
:100F0000BD4680BD000C024080B582B000AF786065
:100F10000B46FB70FB78002B05D07B681B681846DE
:100F200003F000F801E003F009F80837BD4680BD82
:100F300080B582B000AF78607B681B68184650218E
:100F400002F07AFF0837BD4680BD00BF80B582B091
:100F500000AF78607B681B681846E62102F06CFFE2
:100F60000837BD4680BD00BF80B582B000AF786055
:100F70007B685B681846F02102F05EFF0837BD46CB
:100F800080BD00BF80B582B000AF78607B685B68D1
:100F90001846412102F050FF0837BD4680BD00BF12
:100FA00080B483B000AF78600B467B807B687A8822
:100FB0009A850C37BD465DF8047B704780B582B0DA
:100FC00000AF78607B689B681846642102F0C0FF20
:100FD0007B689B681846002102F02EFF0837BD464B
:100FE00080BD00BF80B582B000AF78607B689B6831
:100FF0001846642102F0ACFF7B689B681846CB2141
:1010000002F01AFF0837BD4680BD00BF80B582B030
:1010100000AF78607B689B681846642102F098FFF7
:101020007B689B6818465F2102F006FF0837BD46C3
:1010300080BD00BF80B582B000AF78607B68DB68A0
:101040001846642102F084FF7B68DB6818464FF481
:10105000967102F0F1FE0837BD4680BD80B582B0C2
:1010600000AF78607B68DB681846642102F070FF8F
:101070007B68DB681846622102F0DEFE0837BD4659
:1010800080BD00BF80B582B000AF78607B68DB6850
:101090001846642102F05CFF7B68DB681846D021AB
:1010A00002F0CAFE0837BD4680BD00BF80B582B0E1
:1010B00000AF78607B689A687B685B8D1046194644
:1010C00002F046FF7B689B681846002102F0B4FEE0
:1010D0000837BD4680BD00BF80B582B000AF7860E4
:1010E0007B689A687B689B8D1046194602F030FF3A
:1010F0007B689B681846CB2102F09EFE0837BD46F0
:1011000080BD00BF80B582B000AF78607B68DA68D0
:101110007B685B8D1046194602F01AFF7B68DB681E
:1011200018464FF4967102F087FE0837BD4680BD21
:1011300080B582B000AF78607B68DA687B689B8D91
:101140001046194602F004FF7B68DB6818466221EE
:1011500002F072FE0837BD4680BD00BF80B582B088
:1011600000AF78607B681B691846142102F064FEAA
:101170000837BD4680BD00BF80B582B000AF786043
:101180007B681B691846402102F056FE0837BD46B1
:1011900080BD00BF80B582B000AF78607B681B69FE
:1011A0001846362102F048FE0837BD4680BD00BF14
:1011B00080B582B000AF78607B685B691846B42167
:1011C00002F03AFE0837BD4680BD00BF80B582B050
:1011D00000AF78607B685B6918468F2102F02CFEB7
:1011E0000837BD4680BD00BF80B582B000AF7860D3
:1011F0007B685B691846992102F01EFE0837BD46E0
:1012000080BD00BF80B582B000AF78607B689B690D
:101210001846D32102F010FE0837BD4680BD00BF3E
:1012200080B582B000AF78607B689B6918469621D4
:1012300002F002FE0837BD4680BD00BF80B582B017
:1012400000AF78607B68DB691846A02102F0F4FDEE
:101250000837BD4680BD00BF80B582B000AF786062
:101260007B68DB691846DE2102F0E6FD0837BD46E3
:1012700080BD00BF80B582B000AF78607B681B6A1C
:101280001846372102F0D8FD0837BD4680BD00BFA3
:1012900080B582B000AF78607B681B6A1846642115
:1012A00002F0CAFD0837BD4680BD00BF80B582B0E0
:1012B00000AF78607B681B6A1846942102F0BCFD81
:1012C0000837BD4680BD00BF80B582B000AF7860F2
:1012D0007B685B6A1846F32102F0AEFD0837BD4615
:1012E00080BD00BF80B582B000AF78607B685B6A6C
:1012F0001846C82102F0A0FD0837BD4680BD00BFDA
:1013000080B582B000AF78607B685B6A1846982130
:1013100002F092FD0837BD4680BD00BF80B483B0A7
:1013200000AF78607B68062283F829200C37BD4621
:101330005DF8047B704700BF80B483B000AF786075
:101340007B68022283F829200C37BD465DF8047BB8
:10135000704700BF80B483B000AF78607B68012223
:1013600083F829200C37BD465DF8047B704700BF29
:1013700080B483B000AF78607B68042283F82920B2
:101380000C37BD465DF8047B704700BF80B483B066
:1013900000AF78607B68032283F829200C37BD46B4
:1013A0005DF8047B704700BF80B582B000AF786005
:1013B000642002F001FE002002F0FEFD0837BD4669
:1013C00080BD00BF80B582B000AF7860344802F0C5
:1013D0004DFD7B681B6818464FF4165102F004FE61
:1013E000304802F043FD7B685B6818464FF41651A5
:1013F00002F0FAFD2B4802F039FD7B689B68184625
:101400004FF4165102F0F0FD264802F02FFD7B68E4
:10141000DB6818464FF4165102F0E6FD214802F051
:1014200025FD7B681B6918464FF4165102F0DCFD60
:101430001C4802F01BFD7B685B6918464FF416518F
:1014400002F0D2FD174802F011FD7B689B69184637
:101450004FF4165102F0C8FD124802F007FD7B68F8
:10146000DB6918464FF4165102F0BEFD0D4802F03C
:10147000FDFC7B681B6A18464FF4165102F0B4FD60
:10148000084802F0F3FC7B685B6A18464FF416517B
:1014900002F0AAFD044802F0E9FC0837BD4680BD11
:1014A0005493010860930108C492010880B5C4B048
:1014B00002AF3B1D1860BA4802F0D8FCB94802F0F0
:1014C000D5FC07F10803B84A1A6007F108030022A7
:1014D0005A60B64B3B6100237B61391D07F108025E
:1014E0007B6900933B69086806CA00F0BDF9B04803
:1014F00002F0BCFCAF4BBB610023FB61AE4B3B6217
:1015000000237B623A1D7B6A00933B6A106807F1F7
:10151000180206CA00F0A8F9A84802F0A7FCA54BDB
:10152000BB620023FB62A64B3B6300237B633A1D37
:101530007B6B00933B6B106807F1280206CA00F032
:1015400093F9A04802F092FC9D4BBB630023FB6320
:10155000994B3B6400237B643A1D7B6C00933B6C8E
:10156000106807F1380206CA00F07EF9964802F0CA
:101570007DFC964BBB640023FB64954B3B650023CD
:101580007B653A1D7B6D00933B6D106807F1480247
:1015900006CA00F069F98F4802F068FC8E4BBB6503
:1015A0000023FB658D4B3B6600237B663A1D7B6EFB
:1015B00000933B6E106807F1580206CA00F054F918
:1015C000874802F053FC844BBB660023FB66854BC7
:1015D0003B6700237B673A1D7B6F00933B6F10686E
:1015E00007F1680206CA00F03FF97F4802F03EFCAE
:1015F0007C4BBB670023FB67784BC7F88030002328
:10160000C7F884303A1DD7F884300093D7F880307B
:10161000106807F1780206CA00F026F9734802F054
:1016200025FC6E4BC7F888300023C7F88C306A4B16
:10163000C7F890300023C7F894303A1DD7F894309B
:101640000093D7F89030106807F1880206CA00F0BE
:101650000BF9674802F00AFC624BC7F89830002388
:10166000C7F89C305C4BC7F8A0300023C7F8A43003
:101670003A1DD7F8A4300093D7F8A030106807F1CE
:10168000980206CA00F0F0F85A4802F0EFFB534BFC
:10169000C7F8A8300023C7F8AC30524BC7F8B030B9
:1016A0000023C7F8B4303A1DD7F8B4300093D7F808
:1016B000B030106807F1A80206CA00F0D5F84E480D
:1016C00002F0D4FB4D4BC7F8B8300023C7F8BC304C
:1016D0004B4BC7F8C0300023C7F8C4303A1DD7F8C9
:1016E000C4300093D7F8C030106807F1B80206CABA
:1016F00000F0BAF8434802F0B9FB414BC7F8C830D4
:101700000023C7F8CC303D4BC7F8D0300023C7F8D2
:10171000D4303A1DD7F8D4300093D7F8D0301068C1
:1017200007F1C80206CA00F09FF83B1D1868FFF7D2
:10173000FFFB354802F09AFB344BC7F8D830002342
:10174000C7F8DC30324BC7F8E0300023C7F8E4308C
:101750003A1DD7F8E4300093D7F8E030106807F16D
:10176000D80206CA00F080F82A4802F07FFB274B17
:10177000C7F8E8300023C7F8EC30274BC7F8F03043
:101780000023C7F8F4303A1DD7F8F4300093D7F8A7
:10179000F030106807F1E80206CA00F065F83DE095
:1017A00068930108B49201084D0F0008310F00083A
:1017B00084930108E50F0008BD0F00089493010809
:1017C0000D100008A4930108B4930108D910000873
:1017D000AD100008CC930108AD1200087512000886
:1017E000DC93010891120008EC930108FC930108B6
:1017F0000C9401081C9401082C9401082112000883
:10180000051200084494010858940108CD110008FD
:10181000B111000868940108E91100080F4802F0AE
:1018200025FB0F4BC7F8F8300023C7F8FC300D4BF1
:10183000C7F800310023C7F804313A1DD7F8043146
:101840000093D7F80031106807F1F80206CA00F0DB
:101850000BF807F58477BD4680BD00BF789401087A
:10186000E9110008B111000882B080B598B000AF4E
:10187000F860381D80E80600FB664FF47A73FB655C
:101880000023BB654FF4FA637B65BB6803F001037B
:10189000002B01D17B6807E0BB685B10FA6813443A
:1018A0001A687B6813441B68BA685210F9680A44C6
:1018B00010469847FB6D1846FEF71AFD84E04D4828
:1018C000F96D02F0EDFA07F110031846002102F05D
:1018D000E9FB3B6F03F00103002B01D1FB6E07E036
:1018E0003B6F5B10FA6813441A68FB6E13441B6865
:1018F0003A6F5210F9680A4410469847FB6D184633
:10190000FEF7F6FCBB6803F00103002B01D17B68F6
:1019100007E0BB685B10FA6813441A687B681344DD
:101920001B68BA685210F9680A44104698470123A8
:1019300087F8533044E0304802F098FA07F110037A
:101940001846002102F0AEFB07F110032B481946A0
:101950000AF008FB0346002B0CD1FB6DBB65FA6D4A
:101960007B6D1344DA0F13445B10FB65002387F88B
:10197000533025E007F11003214819460AF0F2FA26
:101980000346002B0CD1FB6D7B65BA6DFB6D1344D8
:10199000DA0F13445B10FB65002387F853300FE028
:1019A00007F11003174819460AF0DCFA0346002B2A
:1019B00006D1FB6DBB65FB6D7B65002387F853305B
:1019C00097F85330002BB6D17A6DBB6DD31A322BFA
:1019D0003FF775AF0C48F96D02F048FA07F11003B4
:1019E0001846002102F05EFB6037BD46BDE880402E
:1019F00002B070478894010898940108CC940108BB
:101A0000D0940108D4940108D89401080000000083
:101A10002DE9F043D7B004AFFEF79AFC4FF4E13064
:101A200002F092FB4FF4165002F0FAFB02F066FC53
:101A30000346C7F83C31D7F83C010A210A2203F0DB
:101A4000EDFB02F085FC0346C7F8383102F0DCFC00
:101A50000346C7F83431012387F84731002387F85C
:101A6000463107F58873184605F0F0FB0420012184
:101A700003F00CF94FF48063C7F81031012387F8A5
:101A80001431032387F8153107F58873AB481946DD
:101A900005F04EFBA9484FF4806105F033FCD7F800
:101AA0003C0104F04BFF03461C46D7F83C0104F010
:101AB00029FF0346D7F8340121461A4605F016FFE0
:101AC000D7F8340106F058F80346002B4FD097F8AA
:101AD000463183F0010387F846311E20FEF708FCEB
:101AE000D7F8340106F048F80346002BF8D11E2041
:101AF000FEF7FEFB97F84631002B1FD08F484FF4BE
:101B0000806105F0F1FBD7F83C0104F04BFCD7F8FD
:101B10003C01012103F0B6FCD7F83C01012103F0A0
:101B2000BFFCD7F838010121FFF7DAF9D7F83801FF
:101B30000121FFF7E9F902F099FC18E07F484FF422
:101B4000806105F0DFFBD7F83C01002103F09AFC2F
:101B5000D7F83C01002103F0A3FCD7F8380100219D
:101B6000FFF7BEF9D7F838010021FFF7CDF902F0F1
:101B700089FC034687F8333197F83331002B01F0A5
:101B80006A8797F833313E2B01F2658797F8463123
:101B9000002B01F060873B1D1846002102F082FAFD
:101BA000674802F063F93B1D664819460AF0DAF906
:101BB0000346002B04D1644802F058F901F04ABFF3
:101BC0003B1D624819460AF0CDF90346002B13D19C
:101BD000D7F83C0104F096FE03465D48194602F032
:101BE00045F9D7F83C0104F09BFE034658481946D6
:101BF00002F03CF901F02EBF3B1D564819460AF091
:101C0000B1F90346002B2BD1D7F83C0104F0DAFCE4
:101C100010EE103A184608F0A1FD02460B464E4859
:101C200002F024F9D7F83C0104F0DCFC10EE103A85
:101C3000184608F093FD02460B46474802F016F995
:101C4000D7F83C0104F06CFC10EE103A184608F08E
:101C500085FD02460B46404802F008F901F0FABE45
:101C60003B1D3E4819460AF07DF90346002B14D16E
:101C70000023C7F80C3107F586731846002102F0DF
:101C800027F92F4802F0F2F8D7F80C31D7F83C01C9
:101C9000194604F0BDFA01F0DDBE3B1D304819467F
:101CA0000AF060F90346002B1CD1D7F83C0104F080
:101CB00037FCF0EE407A17EE903AC7F8083107F596
:101CC00084731846002102F0F9FB1D4802F0CEF89B
:101CD000D7ED427AD7F83C01B0EE670A04F0E8FA93
:101CE00001F0B8BE3B1D1F4819460AF03BF90346F8
:101CF000002B39D1D7F83C0104F012FCF0EE407A09
:101D0000C7ED4B7A4FF00003C7F8043107F5827333
:101D10001846002102F0D2FB094802F0A7F897ED1F
:101D2000417AD7ED4B7A77EE277AD7F83C01B0EEBF
:101D3000670A04F0BDFA01F08DBE00BF0008024042
:101D4000F0940108F4940108F8940108FC94010847
:101D500000950108049501080C95010810950108EB
:101D600014950108189501083B1DC14819460AF051
:101D7000F9F80346002B57D1D7F83C0104F0D0FB0B
:101D8000B0EE407ADFEDBB7A67EE277A17EE900A65
:101D900008F0E4FC02460B4610461946B2A3D3E90C
:101DA000002308F059FE02460B461046194609F07A
:101DB0000BF80346C7F828314FF00003C7F800318D
:101DC00007F580731846002102F078FBAA4802F05C
:101DD0004DF897ED407AD7ED4A7A77EE277A17EEED
:101DE000900A08F0BBFC02460B46104619469EA31B
:101DF000D3E9002308F006FD02460B4610461946BB
:101E00004FF000029D4B08F027FE02460B4610469D
:101E1000194608F0D9FF0346D7F83C0100EE103A06
:101E200004F046FA01F016BE3B1D954819460AF02B
:101E300099F80346002B05D1D7F83C0104F0B2FA1B
:101E400001F008BE3B1D8F4819460AF08BF8034687
:101E5000002B13D1D7F8340105F00CFE03468A4855
:101E6000194602F003F8D7F8340105F0F5FD0346F2
:101E70008548194601F0FAFF01F0ECBD3B1D83488F
:101E800019460AF06FF80346002B13D1D7F8340136
:101E900005F00CFE03467C48194601F0E7FFD7F831
:101EA000340105F0F5FD03467748194601F0DEFFE1
:101EB00001F0D0BD3B1D764819460AF053F80346A1
:101EC000002B0AD1D7F8340105F040FE03466E48D6
:101ED000194601F0CBFF01F0BDBD3B1D6D48194611
:101EE0000AF040F80346002B0AD1D7F8340105F078
:101EF00017FE03466448194601F0B8FF01F0AABD79
:101F00003B1D654819460AF02DF80346002B0AD1FF
:101F1000D7F8340105F0EEFD03465B48194601F0A1
:101F2000A5FF01F097BD3B1D5C4819460AF01AF861
:101F30000346002B0AD1D7F8340105F0C5FD03464E
:101F40005148194601F092FF01F084BD3B1D5448F1
:101F500019460AF007F80346002B06D1D7F83C01D2
:101F6000002103F08FFA01F075BD3B1D4D48194665
:101F700009F0F8FF0346002B06D1D7F83C010121F8
:101F800003F080FA01F066BD3B1D4748194609F091
:101F9000E9FF0346002B06D1D7F83C01002103F0EE
:101FA0007FFA01F057BD3B1D4048194609F0DAFFA2
:101FB0000346002B06D1D7F83C01012103F070FA4B
:101FC00001F048BD3B1D3A48194609F0CBFF0346D6
:101FD000002B12D107F1FC031846002102F06EFA23
:101FE000254801F043FFD7ED3F7AD7F83C01B0EE2A
:101FF000670A04F007FB01F02DBD3B1D2D48194673
:1020000009F0B0FF0346002B12D107F1F803184680
:10201000002102F053FA184801F028FFD7ED3E7A6C
:10202000D7F83C01B0EE670A04F0FCFA01F012BDEB
:102030003B1D2148194609F095FF0346002B3DD171
:1020400007F1F4031846002102F038FA0A4801F0BB
:102050000DFFD7ED3D7AD7F83C01B0EE670A04F0EA
:1020600097FA01F0F7BC00BFF1D4C853FB21094037
:102070001C95010800003443F0940108008066407C
:102080002095010828950108009501083095010860
:10209000389501083C9501084095010844950108D0
:1020A000489501084C950108509501085495010880
:1020B000589501085C950108609501083B1DBF48D3
:1020C000194609F04FFF0346002B1AD10A23C7F81F
:1020D000F03007F1F0031846002101F0F9FEB8488E
:1020E00001F0C4FED7F8F0309BB21BB2D7F83C0128
:1020F000194604F0E3FAD7F83C0104F02FFB01F095
:10210000A9BC3B1DAF48194609F02CFF0346002B24
:102110001AD10A23C7F8EC3007F1EC031846002166
:1021200001F0D6FEA64801F0A1FED7F8EC309BB234
:102130001BB2D7F83C01194604F0D0FAD7F83C019D
:1021400004F040FB01F086BC3B1D9F48194609F096
:1021500009FF0346002B13D1002387F846319B4823
:102160004FF4806105F0CEF8D7F83C01002103F070
:1021700089F9D7F83C01002103F092F901F06ABC1B
:102180003B1D9348194609F0EDFE0346002B01F074
:1021900061843B1D8F48194609F0E4FE0346002B7D
:1021A0002CD1D7F83C0104F00DFA10EE103A184685
:1021B00008F0D4FA04460D46D7F83C0104F012FAB0
:1021C00010EE103A184608F0C9FA02460B46CDE95F
:1021D0000023814822462B4601F048FED7F83C01F7
:1021E00004F09EF910EE103A184608F0B7FA0246CD
:1021F0000B467A4801F03AFE01F02CBC3B1D7848B2
:10220000194609F0AFFE0346002B23D106F076FCF9
:1022100003467448194601F029FE06F07DFC03468A
:102220007048194601F022FED7F83C3103F51143FE
:1022300068331B686B48194601F018FED7F83C312B
:1022400003F511436C331B686648194601F00EFE16
:1022500001F000BC3B1D6448194609F083FE0346AB
:10226000002B13D1D7F83C0103F0DAF803465F489E
:10227000194601F0FBFDD7F83C0103F0DDF80346F9
:102280005B48194601F0F2FD01F0E4BB3B1D5948E3
:10229000194609F067FE0346002B08D1564801F0A5
:1022A000E5FDD7F83801FFF77FF801F0D3BB3B1D00
:1022B0005248194609F056FE0346002B05D1D7F8BF
:1022C0003801FFF77FF801F0C5BB3B1D4C481946AC
:1022D00009F048FE0346002B1DD14A4B1B78D7F866
:1022E0003C01194603F0CEF8474801F0BFFD454BCD
:1022F0001B78002B03D0454801F0B8FD02E04448AC
:1023000001F0B4FD3F4B1B7883F00103DAB23D4B83
:102310001A7001F09FBB3B1D3E48194609F022FE92
:102320000346002B1DD13C4B1B78D7F83C011946C6
:1023300003F0B6F8394801F099FD374B1B78002BB4
:1023400003D0374801F092FD02E0364801F08EFDDF
:10235000314B1B7883F00103DAB22F4B1A7001F076
:1023600079BB3B1D3048194609F0FCFD0346002BA4
:102370005CD107F590731846002102F0CBF8D7F82E
:102380003C0197F820115A2203F0E2FF07F59273FF
:102390001846012102F0BEF8D7F83C0197F8241145
:1023A0005A2203F0D5FF4FF4FA70FDF7A1FFD7F8DA
:1023B0003C0103F0F7FF01F04DBB00BF649501083D
:1023C000F0940108689501086C9501080008024026
:1023D000789501087C950108809501088C95010885
:1023E00094950108009501089C950108A0950108A5
:1023F000C4950108E8950108F095010800960108C8
:1024000008960108200900200C960108349601085E
:102410004C96010868960108210900206C96010875
:1024200090960108A4960108BC9601083B1DCA4875
:10243000194609F097FD0346002B11D1C74B07F150
:10244000DC04186859689A68DB680FC407F1DC037C
:10245000D7F83C011946082204F07EFA01F0FABAD6
:102460003B1DBF48194609F07DFD0346002B13D1E3
:10247000D7F83C0102F09CFF0346BA48194601F028
:10248000F5FCD7F83C0102F0A3FF0346B648194615
:1024900001F0ECFC01F0DEBA3B1DB448194609F02E
:1024A00061FD0346002B21D1D7F83C0102F0A0FFCB
:1024B0000246D7F83C3103F5114368331B68AC483A
:1024C00011461A4601F0D2FCD7F83C0102F09CFFFD
:1024D0000246D7F83C3103F511436C331B68A5481D
:1024E00011461A4601F0C2FC01F0B4BA3B1DA248E5
:1024F000194609F037FD0346002B08D1D7F83C01F7
:1025000004F0A0F89D4801F0B1FC01F0A3BA3B1D16
:102510009B48194609F026FD0346002B08D199482F
:1025200001F0A4FCD7F83C0104F0D4FB01F092BA0E
:102530003B1D9548194609F015FD0346002B08D1AF
:10254000924801F093FCD7F83C0104F0F9FB01F04C
:1025500081BA3B1D8E48194609F004FD0346002B45
:1025600005D1D7F83C0104F06FFC01F073BA3B1DB4
:102570008848194609F0F6FC0346002B05D1D7F828
:102580003801FEF793FF01F065BA3B1D82481946FA
:1025900009F0E8FC0346002B6AD1804801F066FC94
:1025A00097F84731002B31D007F1D80107F1D40259
:1025B00007F1D003D7F83C0103F030FF07F1D8034F
:1025C0001846002101F07AFFD7F8D830184608F0F5
:1025D000C5F802460B46724801F048FCD7ED366A52
:1025E00097ED357AD7ED347AD7F83C01B0EE660A2C
:1025F000F0EE470AB0EE671A03F060FFD7F83C012F
:102600004FF4967104F036FA01F024BA07F1D801BC
:1026100007F1D40207F1D003D7F83C0103F026FFFD
:1026200007F1D8031846002101F048FFD7F8D83049
:10263000184608F093F802460B465A4801F016FC7B
:10264000D7ED366A97ED357AD7ED347AD7F83C0175
:10265000B0EE660AF0EE470AB0EE671A03F046FFE6
:10266000D7F83C019FED500A04F096FA01F0F2B958
:102670003B1D4E48194609F075FC0346002B40F0FF
:102680009D804B4801F0F2FB97F84731002B31D089
:1026900007F1CC0107F1C80207F1C403D7F83C01E8
:1026A00003F0BCFE07F1C4031846002101F006FF49
:1026B000D7F8C430184608F051F802460B463D489A
:1026C00001F0D4FBD7ED336A97ED327AD7ED317A4A
:1026D000D7F83C01B0EE660AF0EE470AB0EE671A92
:1026E00003F0ECFED7F83C014FF4967104F0C2F908
:1026F00001F0B0B907F1CC0107F1C80207F1C4033A
:10270000D7F83C0103F0B2FE07F1C40318460021DC
:1027100001F0D4FED7F8C430184608F01FF802467E
:102720000B46254801F0A2FBD7ED336A97ED327ACC
:10273000D7ED317AD7F83C01B0EE660AF0EE470AE1
:10274000B0EE671A03F0D2FED7F83C019FED160AEF
:1027500004F022FA01F07EB9C8960108E89B01084E
:10276000D0960108D4960108E4960108F89601086D
:10277000FC9601082897010854970108589701080A
:1027800068970108709701088C97010894970108D1
:10279000B4970108BC970108C4970108C8970108BD
:1027A000CC970108DC970108920A0640E8970108D7
:1027B000EC970108F4970108049801083B1DB648FE
:1027C000194609F0CFFB0346002B6AD1B34801F04C
:1027D0004DFB97F84731002B31D007F1C00107F1CD
:1027E000BC0207F1B803D7F83C0103F017FE07F16C
:1027F000BC031846002101F061FED7F8BC30184632
:1028000007F0ACFF02460B46A54801F02FFBD7EDC1
:10281000306A97ED2F7AD7ED2E7AD7F83C01B0EEDB
:10282000660AF0EE470AB0EE671A03F047FED7F8E3
:102830003C014FF4967104F01DF901F00BB907F15A
:10284000C00107F1BC0207F1B803D7F83C0103F05F
:102850000DFE07F1BC031846002101F02FFED7F84A
:10286000BC30184607F07AFF02460B468D4801F04F
:10287000FDFAD7ED306A97ED2F7AD7ED2E7AD7F89B
:102880003C01B0EE660AF0EE470AB0EE671A03F0BC
:102890002DFED7F83C019FED840A04F07DF901F08C
:1028A000D9B83B1D8148194609F05CFB0346002B53
:1028B00013D197F8473183F0010387F8473197F830
:1028C0004731002B04D07A4801F0D0FA01F0C2B8A9
:1028D000784801F0CBFA01F0DAB83B1D764819468A
:1028E00009F040FB0346002B61D107F1B40107F169
:1028F000B00207F1AC03D7F83C0103F08FFD07F1FC
:10290000A80107F1A40207F1A003D7F83C0103F0E6
:10291000ADFDD7F83C0103F0F1FE03469BB21EB2B9
:10292000D7F8B430184607F019FF04460D46D7F81B
:10293000B030184607F012FF80468946D7F8AC3011
:10294000184607F00BFF02460B46CDE90089CDE99A
:1029500002235A48314622462B4601F087FAD7F81F
:102960003C0103F0DBFE03469BB21EB2D7F8A83051
:10297000184607F0F3FE04460D46D7F8A430184673
:1029800007F0ECFE80468946D7F8A030184607F0DD
:10299000E5FE02460B46CDE90089CDE90223484811
:1029A000314622462B4601F061FA01F053B83B1D37
:1029B0004448194609F0D6FA0346002B20D1424874
:1029C00001F054FA07F19C031846002101F076FD4E
:1029D000D7ED277AD7F83C01B0EE670A03F05EFE28
:1029E000D7F83C0103F04AFE10EE103A184607F003
:1029F000B5FE02460B46354801F038FA01F02AB818
:102A00003B1D3348194609F0ADFA0346002B1DD192
:102A1000304801F02BFA07F19B031846002101F022
:102A20008BFD97F89B301BB2D7F83C01194603F099
:102A300045FED7F83C0103F061FE03469BB21BB292
:102A40002548194601F012FA01F004B83B1D23484D
:102A5000194609F087FA0346002B45D1204801F0BA
:102A600005FA07F19A031846002101F065FD97F871
:102A70009A301BB2D7F83C01194603F02FFED7F865
:102A80003C0103F04BFE03469BB21BB215481946AE
:102A900001F0ECF900F0DEBF10980108149801086D
:102AA0001C9801082C980108920A064038980108E1
:102AB000409801085C980108749801087C98010806
:102AC000A8980108D4980108DC980108F09801083A
:102AD00000990108089901082C99010850990108EA
:102AE00058990108789901083B1DCF48194609F00B
:102AF00039FA0346002B1AD10023C7F89430CB488B
:102B000001F0B4F907F194031846002101F030FDFB
:102B1000D7F89430D7F83C01194603F00FFED7F8E8
:102B20009430C348194601F0A1F900F093BF3B1D52
:102B3000C048194609F016FA0346002B2ED1BE48AC
:102B400001F094F907F1900107F18C0207F1880375
:102B5000D7F83C0103F062FC07F19003184600210E
:102B600001F0ACFCD7ED246A97ED237AD7ED227AF9
:102B7000D7F83C01B0EE660AF0EE470AB0EE671AED
:102B800003F09CFCD7F89030184607F0E7FD0246AA
:102B90000B46AA4801F06AF900F05CBF3B1DA8484B
:102BA000194609F0DFF90346002B2DD1A54801F0A5
:102BB0005DF907F1840107F1800207F17C03D7F882
:102BC0003C0103F02BFC07F17C031846002101F0C7
:102BD00075FCD7ED216A97ED207AD7ED1F7AD7F8EB
:102BE0003C01B0EE660AF0EE470AB0EE671A03F059
:102BF00065FCFB6F184607F0B1FD02460B46924894
:102C000001F034F900F026BF3B1D9048194609F049
:102C1000A9F90346002B2DD18D4801F027F907F1C2
:102C2000780107F1740207F17003D7F83C0103F053
:102C3000F5FB07F174031846002101F03FFCD7EDC6
:102C40001E6A97ED1D7AD7ED1C7AD7F83C01B0EEDD
:102C5000660AF0EE470AB0EE671A03F02FFC7B6FAE
:102C6000184607F07BFD02460B467A4801F0FEF855
:102C700000F0F0BE3B1D7848194609F073F9034691
:102C8000002B2DD1754801F0F1F807F16C0107F127
:102C9000680207F16403D7F83C0103F0E7FB07F192
:102CA0006C031846002101F009FCD7ED1B6A97ED73
:102CB0001A7AD7ED197AD7F83C01B0EE660AF0EE31
:102CC000470AB0EE671A03F011FCFB6E184607F0D6
:102CD00045FD02460B46624801F0C8F800F0BABE56
:102CE0003B1D6048194609F03DF90346002B2DD1E4
:102CF0005D4801F0BBF807F1600107F15C0207F1E4
:102D00005803D7F83C0103F0B1FB07F15C03184608
:102D1000002101F0D3FBD7ED186A97ED177AD7EDB4
:102D2000167AD7F83C01B0EE660AF0EE470AB0EE2C
:102D3000671A03F0DBFBFB6D184607F00FFD024638
:102D40000B464A4801F092F800F084BE3B1D48480B
:102D5000194609F007F90346002B2DD1454801F02B
:102D600085F807F1540107F1500207F14C03D7F839
:102D70003C0103F07BFB07F14C031846002101F0F6
:102D80009DFBD7ED156A97ED147AD7ED137AD7F836
:102D90003C01B0EE660AF0EE470AB0EE671A03F0A7
:102DA000A5FBFB6C184607F0D9FC02460B463248DF
:102DB00001F05CF800F04EBE3B1D3048194609F0AA
:102DC000D1F80346002B05D1D7F83C0102F0E2FF11
:102DD00000F040BE3B1D2A48194609F0C3F80346DF
:102DE000002B05D1D7F83C0103F020F800F032BEEB
:102DF0003B1D2448194609F0B5F80346002B05D1C0
:102E0000D7F83C0103F0D0F800F024BE3B1D1E486B
:102E1000194609F0A7F80346002B37D1D7F83C0133
:102E200003F03AF900F016BE9C990108A099010838
:102E3000B8990108CC990108D0990108CC970108EC
:102E4000DC990108E0990108F4970108EC99010860
:102E5000F09901081C980108FC990108009A0108E2
:102E6000DC9701080C9A0108109A01082C980108B7
:102E70001C9A0108209A0108049801082C9A01085C
:102E8000389A0108449A0108549A01083B1DC94820
:102E9000194609F067F80346002B05D1D7F83C0125
:102EA00003F048F900F0D6BD3B1DC348194609F0B0
:102EB00059F80346002B05D1D7F83C0103F05CF923
:102EC00000F0C8BD3B1DBD48194609F04BF803464C
:102ED000002B05D1D7F83801FEF774FA00F0BABD1F
:102EE0003B1DB748194609F03DF80346002B05D1B4
:102EF000D7F83801FDF72CFF00F0ACBD3B1DB14801
:102F0000194609F02FF80346002B11D11923A7F811
:102F10004A3007F14A031846002101F045FBB7F893
:102F20004A30D7F838011946FEF73AF800F092BD5A
:102F30003B1DA548194609F015F80346002B6CD136
:102F40000023C7F8403162E0A04800F08FFFD7F8B7
:102F50003801FEF78FF9D7F83801FEF7B5F9D7F841
:102F60003801FDF7E5FFD7F83801FDF7FDFFD7F889
:102F70003801FEF74BF8D7F83801FEF783F8D7F899
:102F80003801FEF73FF9D7F83801FEF757F9D7F8BF
:102F90003801FEF7E3F8D7F83801FEF709F94FF4E6
:102FA0007A70FDF7A5F98A4800F060FFD7F838017C
:102FB000FEF77CF9D7F83801FEF7A2F9D7F8380107
:102FC000FDF7C4FFD7F83801FDF7DCFFD7F838016B
:102FD000FEF708F8D7F83801FEF740F8D7F83801BF
:102FE000FEF71EF9D7F83801FEF736F9D7F83801A1
:102FF000FEF7C2F8D7F83801FEF7E8F84FF47A7018
:10300000FDF776F9D7F840310133C7F84031D7F8EA
:103010004031312B98DD00F01DBD3B1D6D48194638
:1030200008F0A0FF0346002B1CD107F14803002243
:103030001A80694800F01AFF07F148031B88B3F5AE
:10304000967F0DD807F148031846002101F0ACFA2D
:1030500007F148031B88D7F838011946FDF768FEC9
:1030600000F0F8BC3B1D5D48194608F07BFF0346A5
:10307000002B05D1D7F83801FDF7A0FF00F0EABC1E
:103080003B1D5748194608F06DFF0346002B05D13C
:10309000D7F83801FDF7A6FF00F0DCBC3B1D514816
:1030A000194608F05FFF0346002B05D1D7F8380119
:1030B000FDF7ACFF00F0CEBC3B1D4B48194608F0B5
:1030C00051FF0346002B05D1D7F83801FDF7B2FFB9
:1030D00000F0C0BC3B1D4548194608F043FF0346BD
:1030E000002B05D1D7F83801FDF7B8FF00F0B2BCCE
:1030F0003B1D3F48194608F035FF0346002B05D11C
:10310000D7F83801FDF7BEFF00F0A4BC3B1D3948DD
:10311000194608F027FF0346002B05D1D7F83801E0
:10312000FDF7C4FF00F096BC3B1D3348194608F07C
:1031300019FF0346002B05D1D7F83801FDF7CCFF66
:1031400000F088BC3B1D2D48194608F00BFF0346D4
:10315000002B05D1D7F83801FDF7D4FF00F07ABC79
:103160003B1D2748194608F0FDFE0346002B05D1FC
:10317000D7F83801FDF7DCFF00F06CBC3B1D21489F
:10318000194608F0EFFE0346002B05D1D7F83801A9
:10319000FDF7CEFE00F05EBC3B1D1B48194608F053
:1031A000E1FE0346002B31D1D7F83801FDF7CEFE02
:1031B00000F050BC609A01086C9A01080096010862
:1031C000789A0108849A0108889A0108909A01085F
:1031D0009C9A0108A89A0108AC9A0108B89A0108BB
:1031E000BC9A0108C09A0108C49A0108C89A01084B
:1031F000CC9A0108D09A0108D89A0108E09A0108EF
:10320000E89A0108F09A0108F49A01083B1DB548B4
:10321000194608F0A7FE0346002B05D1D7F8380160
:10322000FDF7A2FE00F016BC3B1DAF48194608F0A2
:1032300099FE0346002B05D1D7F83801FDF7A2FE11
:1032400000F008BC3B1DA948194608F08BFE034658
:10325000002B08D1D7F83801FDF786FED7F83801E2
:10326000FDF766FEF6E33B1DA148194608F07AFE1D
:103270000346002B08D1D7F83801FDF775FED7F8C3
:103280003801FDF755FEE5E33B1D9A48194608F065
:1032900069FE0346002B08D1D7F83801FDF772FE0E
:1032A000D7F83801FDF752FED4E33B1D924819468A
:1032B00008F058FE0346002B04D1D7F83801FEF77A
:1032C0002DF8C7E33B1D8D48194608F04BFE034619
:1032D000002B04D1D7F83801FEF72EF8BAE33B1DD6
:1032E0008748194608F03EFE0346002B04D1D7F864
:1032F0003801FEF72FF8ADE33B1D8248194608F070
:1033000031FE0346002B04D1D7F83801FEF730F820
:10331000A0E33B1D7C48194608F024FE0346002B21
:1033200004D1D7F83801FEF731F893E33B1D774815
:10333000194608F017FE0346002B04D1D7F83801D0
:10334000FDF70CFF86E33B1D7148194608F00AFEA5
:103350000346002B04D1D7F83801FDF70DFF79E3C0
:103360003B1D6C48194608F0FDFD0346002B04D1B7
:10337000D7F83801FDF70EFF6CE33B1D6648194690
:1033800008F0F0FD0346002B04D1D7F83801FDF713
:103390000FFF5FE33B1D6148194608F0E3FD03465C
:1033A000002B04D1D7F83801FDF710FF52E33B1D85
:1033B0005B48194608F0D6FD0346002B04D1D7F828
:1033C0003801FDF711FF45E33B1D5648194608F04B
:1033D000C9FD0346002B08D1D7F83801FDF7E8FEF8
:1033E000D7F83801FDF7BAFE34E33B1D4E481946C5
:1033F00008F0B8FD0346002B08D1D7F83801FDF7D7
:10340000E5FED7F83801FDF7B7FE23E33B1D47483B
:10341000194608F0A7FD0346002B08D1D7F838015C
:10342000FDF7E2FED7F83801FDF7B4FE12E33B1DCD
:103430003F48194608F096FD0346002B04D1D7F803
:103440003801FDF7DFFE05E33B1D3A48194608F059
:1034500089FD0346002B04D1D7F83801FDF7E0FEC3
:10346000F8E23B1D3448194608F07CFD0346002B6A
:1034700004D1D7F83801FDF7E1FEEBE23B1D2F4800
:10348000194608F06FFD0346002B04D1D7F8380128
:10349000FDF7E2FEDEE23B1D2948194608F062FD19
:1034A0000346002B04D1D7F83801FDF7E3FED1E243
:1034B0003B1D2448194608F055FD0346002B04D156
:1034C000D7F83801FDF7E4FEC4E23B1D1E4819465B
:1034D00008F048FD0346002B38D1D7F83801FDF736
:1034E000E5FEB7E2F89A0108FC9A0108009B010882
:1034F000049B0108089B01080C9B0108109B010814
:10350000149B0108189B01081C9B0108209B0108C3
:10351000249B0108289B01082C9B0108309B010873
:10352000349B0108389B01083C9B0108409B010823
:10353000449B0108489B01084C9B0108509B0108D3
:10354000549B0108589B01085C9B01083B1D1348D4
:10355000194608F007FD0346002B04D1D7F83801BF
:10356000FDF7B2FE76E23B1D0D48194608F0FAFC65
:103570000346002B04D1D7F83801FDF7B3FE69E20A
:103580003B1D0848194608F0EDFC0346002B0BD103
:10359000D7F83801FDF7B4FE5CE200BF609B01087C
:1035A000649B0108689B01083B1DDD48194608F033
:1035B000D9FC0346002B40F0498241F28830FCF7E9
:1035C00097FED7F83801FDF7F9FCD64800F04EFC1D
:1035D00007F144031846002100F070FFD7F83801C6
:1035E000FDF700FDD04800F041FC07F14403184608
:1035F000002100F063FFD7F83801FDF71BFDCB4831
:1036000000F034FC07F144031846002100F056FF97
:10361000D7F83801FDF722FDC54800F027FC07F177
:1036200044031846002100F049FFD7F83801FDF7A0
:103630003DFDC04800F01AFC07F144031846002184
:1036400000F03CFFD7F83801FDF746FDB54800F023
:103650000DFCB94800F00AFC07F1440318460021AC
:1036600000F02CFFD7F83801FDF74CFDB34800F00F
:10367000FDFB07F144031846002100F01FFFD7F8B7
:103680003801FDF755FDAE4800F0F0FB07F14403AB
:103690001846002100F012FFD7F83801FDF748FC6A
:1036A000A84800F0E3FB07F144031846002100F0AE
:1036B00005FFD7F83801FDF749FCA34800F0D6FB19
:1036C00007F144031846002100F0F8FED7F838014E
:1036D000FDF74AFC9D4800F0C9FB07F1440318467A
:1036E000002100F0EBFED7F83801FDF74BFC9848BD
:1036F00000F0BCFB07F144031846002100F0DEFE99
:10370000D7F83801FDF730FCD7F83801FDF710FC89
:10371000904800F0ABFB07F144031846002100F08D
:10372000CDFED7F83801FDF72DFCD7F83801FDF7AD
:103730000DFC894800F09AFB07F14403184600216C
:1037400000F0BCFED7F83801FDF7E8FD834800F033
:103750008DFB07F144031846002100F0AFFED7F8B7
:103760003801FDF7E9FD7E4800F080FB07F14403D6
:103770001846002100F0A2FED7F83801FDF7EAFD57
:10378000784800F073FB07F144031846002100F06D
:1037900095FED7F83801FDF7EBFD734800F066FBA6
:1037A00007F144031846002100F088FED7F83801DD
:1037B000FDF7DAFBD7F83801FDF7BAFB07F1440350
:1037C0001846002100F07AFED7F83801FDF7C6FC54
:1037D000664800F04BFB07F144031846002100F057
:1037E0006DFED7F83801FDF7C7FC614800F03EFBDD
:1037F00007F144031846002100F060FED7F83801B5
:10380000FDF7C8FC5B4800F031FB07F144031846A4
:10381000002100F053FED7F83801FDF7C9FC5648E7
:1038200000F024FB07F144031846002100F046FE97
:10383000D7F83801FDF7CAFC504800F017FB07F134
:1038400044031846002100F039FED7F83801FDF78F
:10385000CBFC4B4800F00AFB07F14403184600215B
:1038600000F02CFED7F83801FDF7A2FCD7F838019C
:10387000FDF774FC434800F0F9FA07F144031846D9
:10388000002100F01BFED7F83801FDF79FFCD7F8A8
:103890003801FDF771FC3C4800F0E8FA07F14403F9
:1038A0001846002100F00AFED7F83801FDF79CFC0D
:1038B000D7F83801FDF76EFC344800F0D7FA07F16D
:1038C00044031846002100F0F9FDD7F83801FDF750
:1038D00099FC2F4800F0CAFA07F14403184600216A
:1038E00000F0ECFDD7F83801FDF79AFC294800F00C
:1038F000BDFA07F144031846002100F0DFFDD7F8B8
:103900003801FDF79BFC244800F0B0FA07F14403AE
:103910001846002100F0D2FDD7F838013EE000BF84
:103920006C9B0108B89A0108BC9A0108C49A010866
:10393000C89A0108D09A0108D89A0108E09A0108AB
:10394000E89A0108F09A0108F49A0108F89A010827
:10395000FC9A0108749B0108849B01080C9B0108D8
:10396000109B0108149B0108189B0108209B01086B
:10397000249B0108289B01082C9B0108309B01080F
:10398000349B0108949B0108A49B0108B49B010887
:10399000449B0108489B01084C9B0108FDF75CFC17
:1039A0003C4800F063FA07F144031846002100F098
:1039B00085FDD7F83801FDF75DFC374800F056FA71
:1039C00007F144031846002100F078FDD7F83801CC
:1039D000FDF75EFC314800F049FA07F14403184650
:1039E000002100F06BFDD7F83801FDF75FFC2C4893
:1039F00000F03CFA07F144031846002100F05EFD98
:103A0000D7F83801FDF760FC264800F02FFA07F1DF
:103A100044031846002100F051FDD7F83801FDF7A6
:103A200061FC214800F022FA07F144031846002106
:103A300000F044FDD7F83801FDF762FC1B4800F0A8
:103A400015FA41F28830FCF753FC03E0184800F007
:103A50000DFA1CE01BE097F833313F2B17D197F894
:103A60004631002B11D0134800F000FAD7F83C0182
:103A7000002101F007FDD7F83C01002101F010FD05
:103A8000D7F83801FDF704FCFEE700F0EFFCFEF785
:103A900006B800BF509B0108549B0108589B0108C1
:103AA0005C9B0108609B0108649B0108689B0108FE
:103AB000C49B0108D49B010898B500AF484B1B6814
:103AC00003F00103002B14D145480EF01BF9034607
:103AD000002B0CBF00230123DBB2002B09D00024F4
:103AE00000F00CFC03461A463E4B1A603C480EF0B0
:103AF00029F93D4B1B6803F00103002B14D13A4810
:103B00000EF000F90346002B0CBF00230123DBB2AB
:103B1000002B09D0002400F01BFC03461A46334B4F
:103B20001A6031480EF00EF93148012105F040FAD3
:103B30000346002B0CBF00230123DBB2002B4DD02A
:103B40002B48012105F05EFA264B1B68184601F050
:103B5000B5FC244B1B68184601F052FF254B1B682F
:103B6000092B94BF00230123DBB2002B0CD01D4B8B
:103B70001B68184601F06CFE1C4B1B681846FCF7CE
:103B80008FFF1C4B00221A601B4B1B68632B94BFDA
:103B900000230123DBB2002B07D0124B1B68184611
:103BA00002F028F8144B00221A60124B1B685A1CB2
:103BB000104B1A60104B1B685A1C0F4B1A600DE01B
:103BC000002C02D106480EF0B9F80DF009FE002CC9
:103BD00002D105480EF0B2F80DF002FE98BD00BF0C
:103BE0000C090020240900201009002028090020C9
:103BF000000800402C0900203009002098B500AFD3
:103C00001B4B1B6803F00103002B14D118480EF066
:103C100079F80346002B0CBF00230123DBB2002BF5
:103C200009D0002400F0F0FB03461A46114B1A603D
:103C30000F480EF087F8102004F0F4F90346002B2B
:103C40000CBF00230123DBB2002B0FD0094B1B68F4
:103C5000184603F0DDFE102004F008FA06E0002C00
:103C600002D103480EF06AF80DF0BAFD98BD00BF0E
:103C7000140900203409002098B500AF1B4B1B68C5
:103C800003F00103002B14D118480EF03BF8034653
:103C9000002B0CBF00230123DBB2002B09D0002432
:103CA00000F0B2FB03461A46114B1A600F480EF0A3
:103CB00049F8022004F0B6F90346002B0CBF00239C
:103CC0000123DBB2002B0FD0094B1B68184603F011
:103CD000B7FE022004F0CAF906E0002C02D1034826
:103CE0000EF02CF80DF07CFD98BD00BF18090020E7
:103CF0003809002098B500AF244B1B6803F001037E
:103D0000002B14D121480DF0FDFF0346002B0CBF02
:103D100000230123DBB2002B09D0002400F074FB48
:103D200003461A461A4B1A6018480EF00BF840204A
:103D300004F078F90346002B0CBF00230123DBB20B
:103D4000002B07D0124B1B68184603F055FE40208D
:103D500004F08CF9802004F065F90346002B0CBFB9
:103D600000230123DBB2002B0FD0094B1B68184640
:103D700003F05AFE802004F079F906E0002C02D10D
:103D800002480DF0DBFF0DF02BFD98BD1C09002053
:103D90003C09002080B483B000AF78607B6818468F
:103DA0000C37BD465DF8047B704700BF80B584B01A
:103DB00000AFF860F9723A81FB80FB68FA7A1A70FA
:103DC000FB683A895A80FB68FA889A80F86800F0A4
:103DD00005F8FB6818461037BD4680BD80B582B037
:103DE00000AF786000F0FCFB78681021012200230E
:103DF00000F01AFC786818210122012300F014FC5D
:103E000078680B210122962300F00EFC7B685B880A
:103E100078680621022200F007FC7B689B8878689E
:103E20000821022200F000FC7868642100F090F87C
:103E30000837BD4680BD00BF80B582B000AF786056
:103E40000B467B807A8813469B029A1A064BA3FB8B
:103E500002135B099BB278681E21022200F0E4FB8A
:103E60000837BD4680BD00BFB5814E1B0FB480B57D
:103E700092B000AF07F154037B643B1D184640210C
:103E80003A6D7B6C09F04CFA3B1D184600F014FCAF
:103E900000F02EFC4837BD46BDE8804004B07047B6
:103EA0000FB480B592B000AF07F154037B643B1DA3
:103EB000184640213A6D7B6C09F032FA3B1D1846DA
:103EC00000F0FAFB4837BD46BDE8804004B07047BB
:103ED00080B584B000AF78600B467B807B88084853
:103EE000194600F0DFF80346FB73054807F048FF6A
:103EF00002467B681A60FB7B18461037BD4680BDC2
:103F0000509C002080B582B000AF0346FB71FB7966
:103F10009BB2032001211A4600F0F4FB0837BD468E
:103F200080BD00BF80B582B000AF7860182001214D
:103F3000012200F0E7FB0837BD4680BD80B500AF29
:103F400018200121002200F0DDFB80BD00000000F0
:103F500080B582B000AF78600B467B807B881846C6
:103F600006F0EAFB02460B46104619460FA3D3E9BA
:103F7000002306F047FC02460B46104619464FF058
:103F80000002094B06F068FD02460B461046194632
:103F900006F0FAFE03469BB278682021022200F068
:103FA00043FB0837BD4680BD0000594000000000BB
:103FB00000F88F40AFF3008080B582B000AF0346B9
:103FC000FB80FA8813469B029A1A064BA3FB021346
:103FD0005B099BB21E2002211A4600F093FB0837B2
:103FE000BD4680BDB5814E1B80B586B000AF786000
:103FF0000B467B800123FB750DE0FB7D0133274AD7
:1040000092FBF3F3184600F0C7FB786800F0D8FB8A
:10401000FB7D0133FB75FB7DFF2BEED1204800F0CB
:10402000BBFB00233B6107E004200121CF2200F00D
:1040300069FB3B6901333B613B690A2BF4DD7B88FB
:10404000184600F0A9FB7B681B78FB727B68002296
:104050001A70FB7A7868194600F0BEFB7B68FA7A22
:104060001A700023FB6012E078685A21FFF7E4FE23
:104070004FF46170FCF73CF978686421FFF7DCFECF
:104080004FF46170FCF734F9FB680133FB60FB68A7
:10409000022BE9DD1837BD4680BD00BF80841E00BD
:1040A00040420F0080B584B000AF78600B467B8043
:1040B0000023FB737B881D48194600F09DFB0346D7
:1040C000002B14BF00230123DBB2002B01D00023FF
:1040D00027E0FB7B002B05D1144B1B780D2B01D166
:1040E00001231EE0FB7B002B04D1104B1B780A2B15
:1040F00000D108E0FB7B7A6813440C4A12781A70EE
:10410000FB7B0133FB73FB7B013B7A6813441B7819
:104110000D2BCFD1FB7B013B7A68134400221A7030
:10412000012318461037BD4680BD00BF4C9C0020BF
:1041300080B483B000AF78607B6818460C37BD460A
:104140005DF8047B704700BF80B582B000AF786037
:104150002E4B02221A712D4B02225A712B4B002238
:104160009A712A4B0122DA711020012100F0CAFD58
:104170000220012100F08AFD244BC0221A6024484D
:10418000224902F0D5FF22480621072203F0C8F891
:104190001F480721072203F0C3F81E4B25221A707F
:1041A00000BF1D4B7A681A601B4B00229A801A4B85
:1041B0000022DA80184B00221A81174B00229A81C4
:1041C000154B0C225A81154B1B6818461249FCF7F7
:1041D000FFF8124B1B68184640F225510122FCF7EC
:1041E000F3F90C4B00225A700A4B00229A70094BCB
:1041F0000122DA70074803F047FF084B1B68184696
:104200000121FCF79FF90837BD4680BD98090020C1
:1042100000040240B0090020A00900202C0000206A
:1042200080B582B000AF78602F4B02221A712E4BFE
:1042300002225A712C4B00229A712B4B0122DA7107
:104240004FF40030012100F03FFD0120012100F07A
:104250001DFD254B0C221A602448234902F068FFFB
:1042600022480221072203F05BF82048032107229D
:1042700003F056F81E4B26221A7000BF1D4B7A68B9
:104280001A601C4B00229A801A4B0022DA80194BCC
:1042900000221A81174B00229A81164B0C225A8158
:1042A000154B1B6818461349FCF792F8124B1B6814
:1042B000184640F225510122FCF786F90C4B0022EA
:1042C0005A700B4B00229A70094B0122DA70084891
:1042D00003F0DAFE084B1B6818460121FCF732F99F
:1042E0000837BD4680BD00BFB40900200000024071
:1042F000CC090020BC0900203000002098B500AF98
:10430000114B1B6803F00103002B11D10E480DF077
:10431000F9FC0346002B0CBF00230123DBB2002B6A
:1043200006D00024094800F0F3FE07480DF00AFD0E
:10433000064B06E0002C02D103480DF0FFFC0DF007
:104340004FFA184698BD00BF40090020D009002050
:1043500098B500AF134B1B6803F00103002B16D177
:1043600010480DF0CFFC0346002B0CBF00230123A7
:10437000DBB2002B0BD000240B48FCF71DFA0948D8
:104380000DF0E0FC08480949094A07F0EFFC064B2C
:1043900006E0002C02D103480DF0D0FC0DF020FA0D
:1043A000184698BD44090020409B0020150A0008CB
:1043B0000000002080B582B000AF78607B681433C5
:1043C0001846FFF7B5FE7B6818460837BD4680BD26
:1043D00080B582B000AF78607B689C331846FFF7E9
:1043E000E9FF7B6868331846FFF7E4FF7B683433E6
:1043F0001846FFF7DFFF7B681846FFF7DBFF7B6897
:1044000018460837BD4680BD98B500AF134B1B68F2
:1044100003F00103002B16D110480DF073FC034686
:10442000002B0CBF00230123DBB2002B0BD0002498
:104430000B4803F09FF809480DF084FC084809492F
:10444000094A07F093FC064B06E0002C02D1034812
:104450000DF074FC0DF0C4F9184698BD4809002011
:10446000709B0020D14300080000002080B400AF02
:10447000034B5A6C024B1A64BD465DF8047B7047CF
:104480004C09002080B400AF0A4B1B6C03F14002C2
:10449000084B5B6CD21A084B1340002B03DA013B2C
:1044A00063F03F030133DBB21846BD465DF8047B81
:1044B000704700BF4C0900203F00008080B584B0E9
:1044C00000AF78600B467B807B880B481946FFF76E
:1044D000E9FD0346FB73084807F04EFC53EC102B34
:1044E0001046194606F070FC02467B681A60FB7B9A
:1044F00018461037BD4680BDA09C002080B483B014
:1045000000AF78607B6818460C37BD465DF8047BC9
:10451000704700BF80B582B000AF78600B46FB707B
:104520007868FFF7EBFF7B68FA781A707B681846AB
:104530000837BD4680BD00BF80B584B000AF78604D
:104540000B467B807B8809481946FFF7ABFD034685
:10455000FB73064807F014FC0346DAB27B681A7056
:10456000FB7B18461037BD4680BD00BF649C002011
:1045700080B584B000AF78600B467B807B880948AB
:104580001946FFF78FFD0346FB73064807F0F8FB5B
:1045900003461A467B681A60FB7B18461037BD46F7
:1045A00080BD00BF789C002080B584B000AF7860EB
:1045B0000B467B807B8809481946FFF773FD03464D
:1045C000FB73064807F0DCFB03469AB27B681A804F
:1045D000FB7B18461037BD4680BD00BF8C9C002079
:1045E00080B500AF00BF0E4B1B6818468021FCF75A
:1045F00033F80346002B14BF00230123DBB2002B4A
:10460000F1D1084B5B8923F004039AB2054B5A8120
:10461000034B1B6818460349FBF7DAFE80BD00BF59
:1046200030000020BC0900202DE9F04385B000AF28
:104630007860F970BA703B806B461E46B978F960B5
:104640000B4601331A464FF000034FEAC30949EA0B
:1046500052794FEAC2080B4601331A464FF0000365
:10466000DD0045EA5275D4000B4601330733DB0801
:10467000DB00ADEB030D6B460033BB60BB68FA7823
:104680001A703B88DAB2BB685A70BB78012B05D927
:104690003B881B0A9BB2DAB2BB689A70BB780133C5
:1046A000DAB2BB6878681146032200F001F9B5461A
:1046B0001437BD46BDE8F08390B585B000AF786093
:1046C0000023FB8109E0FB897A6813441B781846B4
:1046D00000F03EF9FB890133FB81FC89786807F023
:1046E0004FFD03469C42EED31437BD4690BD00BF3C
:1046F00080B500AF0D2000F02BF90A2000F028F95A
:1047000080BD00BF2DE9F04385B000AF13460246DF
:10471000FA710A46BA71BB806B461E46B979F960D8
:104720000B4601331A464FF000034FEAC30949EA2A
:1047300052794FEAC2080B4601331A464FF0000384
:10474000DD0045EA5275D4000B4601330733DB0820
:10475000DB00ADEB030D6B460033BB60BB68FA7941
:104760001A70BB88DAB2BB685A70BB79012B05D9C5
:10477000BB881B0A9BB2DAB2BB689A70BB79013363
:10478000DAB2BB68104603211A4600F011F9B546AB
:104790001437BD46BDE8F08380B582B000AF7860C5
:1047A000054B7A681A60054B1B6818460249FBF7EF
:1047B0000FFE0837BD4680BDBC0900203000002038
:1047C00080B582B000AF786000200621002200F0A2
:1047D000EFF80837BD4680BD80B582B000AF786085
:1047E0000B46FB70FB789BB2786803210122FFF730
:1047F0001BFF0837BD4680BD80B584B000AF786030
:104800000B467B800023FB8100237B737B88002B7E
:1048100007D07B881A4652001A44920013445B006A
:104820007B8011E07B88002B0ED0FA897B889A422E
:1048300001D9002328E07B7B002B02D1FB890133C7
:10484000FB817B7B01337B73FFF71CFE0346002B50
:1048500014BF00230123DBB2002BE3D10C4B5B6CB4
:104860000B4AD35CDAB27B681A70094B5B6C5A1C3A
:10487000084B1340002B03DA013B63F03F03013385
:104880001A46034B5A64012318461037BD4680BDB3
:104890004C0900203F00008080B483B000AF7860F6
:1048A0007B6818460C37BD465DF8047B704700BF37
:1048B00080B586B000AFF8607B600B46FB72134694
:1048C000BB7200F0BDF80023FB75FF2000F0DCF8A0
:1048D000FF2000F0D9F8FB681B78184600F0D4F8E8
:1048E000FB7A0233DBB2184600F0CEF8BB7A1846EA
:1048F00000F0CAF8FB681A78FB7A1344DAB2BB7A84
:104900001344DAB2FB7D1344DBB20233FB750023A0
:10491000BB7510E0BB7D7A6813441A78FB7D1344A5
:10492000FB75BB7D7A6813441B78184600F0ACF821
:10493000BB7D0133BB75BA7DFB7A9A42EAD3FB7D1E
:10494000DB43DBB2184600F09FF81837BD4680BD48
:1049500080B582B000AF0346FB7100BF134B1B68EC
:1049600018468021FBF778FE0346002B14BF002376
:104970000123DBB2002BF1D10C4B1A68FB799BB2FF
:1049800010461946FBF7FEFD00BF084B1B68184692
:104990008021FBF761FE0346002B14BF0023012397
:1049A000DBB2002BF1D10837BD4680BD2C000020C2
:1049B00080B584B000AF0B463A600246FA71BB7115
:1049C00000F03EF80023FB73FF2000F05DF8FF20AD
:1049D00000F05AF8FE2000F057F8FB790233DBB202
:1049E000184600F051F8BB79184600F04DF8FA79F6
:1049F000BB791344DAB2FB7B1344FB730023BB7314
:104A000010E0BB7B3A6813441A78FB7B1344FB73BA
:104A1000BB7B3A6813441B78184600F035F8BB7B23
:104A20000133BB73BA7BFB799A42EAD3FB7BDB434E
:104A3000DBB2184600F028F81037BD4680BD00BF35
:104A400080B500AF00BF0E4B1B6818468021FBF7F6
:104A500003FE0346002B14BF00230123DBB2002B0F
:104A6000F1D1084B5B8943F008039AB2054B5A8198
:104A7000034B1B6818460349FBF7AAFC80BD00BF27
:104A800030000020BC09002080B582B000AF034692
:104A9000FB7100BF134B1B6818468021FBF7DCFD40
:104AA0000346002B14BF00230123DBB2002BF1D1FE
:104AB0000C4B1A68FB799BB210461946FBF762FD56
:104AC00000BF084B1B6818468021FBF7C5FD034655
:104AD000002B14BF00230123DBB2002BF1D10837D8
:104AE000BD4680BD3000002080B582B000AF786048
:104AF00039607B68012B10D13A684FF6FF739A42F8
:104B00000BD1074B1B6803F00103002B05D1044BAD
:104B100001221A600348FFF7BFFE0837BD4680BD7B
:104B2000940900204C09002080B500AF01204FF609
:104B3000FF71FFF7D9FF80BD80B489B000AF786006
:104B40000023BB6100237B610023FB6102233B61E7
:104B50000023FB600223BB60484B9B6803F00C03FF
:104B6000BB61BB69042B07D0082B09D0002B3FD1B8
:104B70007B68434A1A603FE07B68424A1A603BE028
:104B80003E4B5B6803F480039B0DFB603B4B5B6813
:104B900003F03F03BB60FB68002B0DD0394ABB68B4
:104BA000B2FBF3F2354B596847F6C0730B409B09D3
:104BB00003FB02F3FB610CE0314ABB68B2FBF3F28A
:104BC0002E4B596847F6C0730B409B0903FB02F359
:104BD000FB612A4B5B6803F440331B0C01335B0021
:104BE0003B61FA693B69B2FBF3F27B681A6003E050
:104BF0007B68234A1A6000BF204B9B6803F0F003D8
:104C0000BB61BB691B09BB611F4ABB6913441B78AD
:104C1000DBB27B617B681A687B69DA407B685A602B
:104C2000164B9B6803F4E053BB61BB699B0ABB61F5
:104C3000154ABB6913441B78DBB27B617B685A68F9
:104C40007B69DA407B689A600C4B9B6803F4604395
:104C5000BB61BB695B0BBB610B4ABB6913441B782F
:104C6000DBB27B617B685A687B69DA407B68DA601B
:104C70002437BD465DF8047B704700BF0038024012
:104C80000024F40000127A000400002080B483B0F5
:104C900000AF78600B46FB70FB78002B06D0094B09
:104CA000084A116B7A680A431A6306E0054B054A05
:104CB000116B7A68D2430A401A630C37BD465DF81F
:104CC000047B70470038024080B483B000AF786046
:104CD0000B46FB70FB78002B06D0094B084A116C81
:104CE0007A680A431A6406E0054B054A116C7A6833
:104CF000D2430A401A640C37BD465DF8047B704706
:104D00000038024080B483B000AF78600B46FB707F
:104D1000FB78002B06D0094B084A516C7A680A438D
:104D20005A6406E0054B054A516C7A68D2430A4042
:104D30005A640C37BD465DF8047B7047003802406A
:104D400080B584B000AFF860B9607A603B60FB6802
:104D50000C331846002102F053F9FB6800221A7741
:104D6000FB6800225A62FB680022DA62FB687A68FC
:104D70005A61FB68BA681A61FB683A689A61F86818
:104D80000A4947F6FF7200F0DFF8F8689FED080A5D
:104D9000DFED070A9FED061A00F07AF8F86800F0D8
:104DA00053F9FB6818461037BD4680BD5A80FFFF97
:104DB0000000000080B485B000AF78607B689B691C
:104DC0001A687B681B691B68D31ABB607B685B6AC7
:104DD000BA68D21A7B689A627B68DA6ABB681A443E
:104DE0007B68DA627B68BA685A627B6893ED007A06
:104DF000BB6806EE103AF8EEC67A27EE277A7B6893
:104E0000D3ED016A7B68DB6A06EE103AF8EEC67AEB
:104E100066EEA77A37EE277A7B68D3ED026A7B6865
:104E20009B6A06EE103AF8EEC67A66EEA77A77EE3F
:104E3000277AFDEEE77A17EE903AFB607B681B8CD1
:104E40001AB2FB689A4204DA7B681B8C1BB2FB60C7
:104E500009E07B68DB8B1AB2FB689A4203DD7B6852
:104E6000DB8B1BB2FB60FB6883EAE372A2EBE372AD
:104E70007B681B7F9A4201DA0023FB607B685B69D9
:104E8000FA6892B21A801437BD465DF8047B704709
:104E900090B587B000AFF86087ED020AC7ED010A50
:104EA00087ED001AD7ED027AF5EEC07AF1EE10FA2E
:104EB0000DD4D7ED017AF5EEC07AF1EE10FA06D4F2
:104EC000D7ED007AF5EEC07AF1EE10FA00D536E0B3
:104ED000FB6803F10C0407F114031846002102F0EB
:104EE0008FF807F114032046194602F09BF8034699
:104EF000002B09D0FB68BA681A60FB687A685A60B0
:104F0000FB683A689A601AE09FED0E7AD7ED027A54
:104F100077EE677AFB68C3ED007A9FED0A7AD7EDEA
:104F2000017A77EE677AFB68C3ED017A9FED057A27
:104F3000D7ED007A77EE677AFB68C3ED027A1C370B
:104F4000BD4690BD0000000080B483B000AF786023
:104F500013460A467A803B80B7F90220B7F9003041
:104F60009A4200DB2EE07B687A88DA837B683A8895
:104F70001A847B685B691B889AB27B681B8C12B2AF
:104F80001BB29A42D4BF00230123DBB2002B05D011
:104F90007B685B697A68128C1A8013E07B685B69B6
:104FA0001B889AB27B68DB8B12B21BB29A42ACBFF1
:104FB00000230123DBB2002B04D07B685B697A6895
:104FC000D28B1A800C37BD465DF8047B704700BF5A
:104FD00080B584B000AF7860397007F10C031846D3
:104FE000012102F00DF83A4607F10C03104619466C
:104FF00002F018F80346002B1DD07B68D3ED007A31
:105000009FED107A77EE677A7B68C3ED007A7B6854
:10501000D3ED017A9FED0B7A77EE677A7B68C3ED6B
:10502000017A7B68D3ED027A9FED067A77EE677A94
:105030007B68C3ED027A7B683A781A731037BD46F5
:1050400080BD00BF0000000080B483B000AF786076
:105050007B6800225A627B680022DA620C37BD4608
:105060005DF8047B704700BF80B483B000AF786008
:105070007B681B6807EE903AB0EE670A0C37BD46B6
:105080005DF8047B704700BF80B483B000AF7860E8
:105090007B685B6807EE903AB0EE670A0C37BD4656
:1050A0005DF8047B704700BF80B483B000AF7860C8
:1050B0007B689B6807EE903AB0EE670A0C37BD46F6
:1050C0005DF8047B704700BF80B483B000AF7860A8
:1050D0007B685B6A18460C37BD465DF8047B7047F9
:1050E00080B483B000AF78607B689B6A18460C3749
:1050F000BD465DF8047B704780B483B000AF786034
:105100007B68DB6A18460C37BD465DF8047B704748
:1051100090B585B000AF7860786801F097FF7C6843
:1051200007F1080318460021FFF7F4F92046397A01
:1051300003F078FA7B685C1C07F10C031846012128
:10514000FFF7E8F92046397B03F06CFA7B68191DFC
:105150007B6803F5114368337A688232786800F11E
:105160006C04084619462346FFF7EAFD7B6803F105
:1051700034017B6803F511436C337A6880327868B8
:1051800000F16804084619462346FFF7D9FD7B68FD
:1051900000229A707B680022DA707B684FF0000270
:1051A0005A667B6800229A667B680022DA667B6812
:1051B0004FF00002C3F88C207B684FF00002C3F868
:1051C00090207B68002283F894207B68002283F87B
:1051D00096207B6803F51143583364221A607B687C
:1051E00003F511435C3332221A607B6803F51143E7
:1051F000603303221A607B6803F511436433002295
:105200001A607B684FF081429A677B684FF0814259
:10521000DA677B6818461437BD4690BD90B5BDB0BF
:1052200000AF786013460A467A803B8003F048FA64
:1052300007F1DC03184603F0BBFB5B4B07F10C01E5
:105240001A46C023084611461A4606F0A7FD002359
:10525000C7F8EC3042E00023C7F8E83035E0D7F873
:10526000EC305B009A00D7F8E83013449B0007F15C
:10527000F0021344E43B1A687968D7F8EC309800E0
:10528000D7F8E830034426339B000B441A60D7F864
:10529000EC305B0001339A00D7F8E83013449B00F0
:1052A00007F1F0021344E43B1A687968D7F8EC3050
:1052B0009800D7F8E83003443E339B000B441A6053
:1052C000D7F8E8300133C7F8E830D7F8E830032BD7
:1052D000C5DDD7F8EC300133C7F8EC30D7F8EC3047
:1052E000052BB8DD7B687A88A3F884207B683A8830
:1052F000A3F886207B681C1D07F1E00318460021F7
:1053000001F07EFE204697F8E010FFF761FE786816
:1053100001F024FA7B6803F1340407F1E403184632
:10532000002101F06DFE204697F8E410FFF750FED3
:10533000786801F047FA7868B7EE000A01F0AEF934
:105340001E2387F8D8300F2387F8D9300F2387F82A
:10535000DA30012387F8DB3007F1D803184602F072
:1053600093FE04200121FFF7AFFC5323A7F8CC30B4
:1053700040F2F313C7F8D0300023A7F8D43000234D
:10538000A7F8CE3007F1CC030848194603F0D2FB4A
:1053900006480121012203F0E7FD7868012100F0B1
:1053A00057F8F437BD4690BDF89B0108000800404F
:1053B00080B483B000AF78607B68B3F882309BB272
:1053C0001BB218460C37BD465DF8047B704700BF22
:1053D00080B483B000AF78607B68B3F880309BB254
:1053E0001BB218460C37BD465DF8047B704700BF02
:1053F00080B483B000AF78607B68DB6E18460C37F2
:10540000BD465DF8047B704780B483B000AF786020
:105410007B689B6E18460C37BD465DF8047B704771
:1054200080B582B000AF786003F068FB0346184691
:105430000837BD4680BD00BF80B582B000AF786040
:1054400003F06AFB034618460837BD4680BD00BF1F
:1054500080B582B000AF78600B46FB70FB78002B04
:1054600004D00748012103F023FC06E00448002192
:1054700003F01EFC786800F095FF0837BD4680BD3C
:105480000008004080B483B000AF78600B46FB702A
:105490007B68FA789A700C37BD465DF8047B7047DC
:1054A00080B483B000AF78600B46FB707B68FA78FD
:1054B000DA700C37BD465DF8047B704780B586B066
:1054C00000AF78607B68DB6E07EE903AB8EEE77A63
:1054D0007B681B6F07EE903AF8EEE76A7B68D3EDC6
:1054E0001E7A76EEE77AB4EEE77AF1EE10FA54BF60
:1054F00000230123DBB2002B11D07B68DB6E07EEAB
:10550000903AB8EEE77A7B68D3ED1E7A77EE277A89
:10551000FDEEE77A17EE902A7B68DA662BE07B686F
:10552000DB6E07EE903AB8EEE77A7B681B6F07EE0A
:10553000903AF8EEE76A7B68D3ED1E7A76EEA77AAA
:10554000B4EEE77AF1EE10FAD4BF00230123DBB208
:10555000002B10D07B68DB6E07EE903AB8EEE77A4E
:105560007B68D3ED1E7A77EE677AFDEEE77A17EE69
:10557000902A7B68DA667B689B6E07EE903AB8EEFD
:10558000E77A7B685B6F07EE903AF8EEE76A7B6834
:10559000D3ED1F7A76EEE77AB4EEE77AF1EE10FA01
:1055A00054BF00230123DBB2002B11D07B689B6E1C
:1055B00007EE903AB8EEE77A7B68D3ED1F7A77EE84
:1055C000277AFDEEE77A17EE902A7B689A662BE041
:1055D0007B689B6E07EE903AB8EEE77A7B685B6F6C
:1055E00007EE903AF8EEE76A7B68D3ED1F7A76EE25
:1055F000A77AB4EEE77AF1EE10FAD4BF00230123C4
:10560000DBB2002B10D07B689B6E07EE903AB8EEB1
:10561000E77A7B68D3ED1F7A77EE677AFDEEE77A5B
:1056200017EE902A7B689A6603F076FA03467B6150
:10563000664B1A687B69D31AB3F5004F05DD644BDE
:105640001B685A1C624B1A600BE0604B1A687B693E
:10565000D31A13F5004F04DA5D4B1B685A1E5C4BDE
:105660001A605A4B7A691A60594B1A6813461B0420
:105670009A1A7B6913443B6103F040FA0346FB60CE
:10568000FA683B691344DA0F13445B101A467B68CF
:1056900003F5114368331A607B6804331846FFF73B
:1056A00089FB7B689B78DBB2002B35D07B68B3F835
:1056B00082309AB27B68B3F884309BB212B21BB2CC
:1056C0009A42D4BF00230123DBB2002B06D07B68B3
:1056D000B3F884309AB27B68A3F882207B68B3F871
:1056E00082309BB21AB27B68B3F884309BB21BB293
:1056F0005B429A42ACBF00230123DBB2002B0FD0E8
:105700007B68B3F884309BB29BB25B429BB29AB287
:105710007B68A3F8822003E07B680022A3F8822044
:105720003A69FB68D31ADA0F13445B101A467B6898
:1057300003F511436C331A607B6834331846FFF766
:1057400039FB7B68DB78DBB2002B35D07B68B3F8A4
:1057500080309AB27B68B3F886309BB212B21BB22B
:105760009A42D4BF00230123DBB2002B06D07B6812
:10577000B3F886309AB27B68A3F880207B68B3F8D0
:1057800080309BB21AB27B68B3F886309BB21BB2F2
:105790005B429A42ACBF00230123DBB2002B0FD047
:1057A0007B68B3F886309BB29BB25B429BB29AB2E5
:1057B0007B68A3F8802003E07B680022A3F88020A8
:1057C000786800F0DDF91837BD4680BDBC9C00202C
:1057D000C09C002080B582B000AF786039607B68E3
:1057E00004331846FFF77CFC0346002B06DD7B687C
:1057F00004331846FFF774FC034606E07B68043365
:105800001846FFF76DFC03465B423A6893421ADC88
:105810007B6834331846FFF763FC0346002B06DD34
:105820007B6834331846FFF75BFC034606E07B6871
:1058300034331846FFF754FC03465B423A68934200
:1058400001DC012300E0002318460837BD4680BD77
:1058500080B582B000AF78607B6803F51143643394
:105860001B6878681946FFF7B5FF0346002B07D081
:105870007B6893F89430DBB2002B01D0012300E069
:105880000023002B00F0AA805C4B1B68002B06D184
:10589000FAF780FD03461A46584B1A60ABE0FAF758
:1058A00079FD0246554B1B68D21A7B6803F51143FC
:1058B00058331B689A4234BF00230123DBB2002B0C
:1058C00000F099807B6804331846FFF7FDFB034620
:1058D000002B06DD7B6804331846FFF7F5FB024614
:1058E00006E07B6804331846FFF7EEFB03465A4296
:1058F0007B6803F511435C331B689A421EDC7B68AE
:1059000034331846FFF7E0FB0346002B06DD7B68C7
:1059100034331846FFF7D8FB024606E07B68343381
:105920001846FFF7D1FB03465A427B6803F5114343
:105930005C331B689A4201DC012300E00023002B4A
:1059400007D0786800F02EFD7B68002283F896204F
:1059500051E07B68B3F880309BB21BB2002B05DDB1
:105960007B68B3F880309BB21AB205E07B68B3F86D
:1059700080309BB21BB25A427B6803F511436033FF
:105980001B689A4219DA7B68B3F882309BB21BB26B
:10599000002B05DD7B68B3F882309BB21AB205E0BC
:1059A0007B68B3F882309BB21BB25A427B6803F526
:1059B000114360331B689A4201DB012300E000239E
:1059C000002B07D0786800F0EDFC7B68012283F89B
:1059D000962010E0786800F0E5FC0CE0074B002210
:1059E0001A607B6893F89430DBB2002B03D07B689D
:1059F000002283F896200837BD4680BDC49C002055
:105A0000B0B584B000AF78607B6803F511436833AC
:105A10001A68474B1B68D31A184604F08DFE0246DD
:105A20000B461046194640A3D3E9002304F0EAFED2
:105A300002460B461046194605F0C6F90346FB60C0
:105A40007B6803F5114368331A68394B1A60F868AC
:105A500004F084FE04460D46786800F061FD10EE07
:105A6000103A184604F07AFE02460B4643EC102B1F
:105A700003F01EFB53EC102B2046294604F0C2FE17
:105A800002460B4614461D467B68D3F88C301846F8
:105A900004F064FE02460B461046194622462B4689
:105AA00004F0FEFC02460B461046194605F08CF940
:105AB00002467B68C3F88C20F86804F04FFE044669
:105AC0000D46786800F02CFD10EE103A184604F0F0
:105AD00045FE02460B4643EC102B03F03DFB53EC16
